:020000040000FA
:10000000680400206D02000071020000730200000D
:100010007502000077020000790200000000000075
:100020000000000000000000000000007B02000053
:100030007D020000000000007F020000F90C0000BB
:10004000830200008302000083020000830200009C
:1000500035060000830200008302000083020000D6
:10006000830200008302000083020000830200007C
:10007000830200008302000083020000830200006C
:10008000830200008302000083020000830200005C
:10009000830200008302000083020000830200004C
:1000A000830200008302000083020000830200003C
:1000B0008302000083020000350700008302000075
:1000C000830200008302000083020000830200001C
:1000D000830200008302000083020000830200000C
:1000E00083020000830200008302000083020000FC
:1000F00083020000830200008302000083020000EC
:1001000083020000830200008302000083020000DB
:1001100083020000830200008302000083020000CB
:1001200083020000830200008302000083020000BB
:1001300083020000830200008302000083020000AB
:1001400000000000000000000000000000000000AF
:10015000830200008302000083020000830200008B
:10016000000000000000000000000000000000008F
:10017000000000000000000000000000000000007F
:10018000000000000000000000000000000000006F
:10019000000000000000000000000000000000005F
:1001A000000000000000000000000000000000004F
:1001B000830200008302000083020000830200002B
:1001C000830200008302000083020000830200001B
:1001D000830200008302000083020000830200000B
:1001E00083020000830200008302000083020000FB
:1001F00083020000830200008302000083020000EB
:10020000830200008302000083020000000000005F
:1002100083020000830200008302000083020000CA
:1002200083020000830200008302000083020000BA
:1002300083020000830200008302000083020000AA
:10024000830200008302000083020000830200009A
:10025000830200008302000083020000830200008A
:1002600083020000830200008302000000F00AB84D
:10027000FEE7FEE7FEE7FEE7FEE7FEE7FEE7FEE756
:10028000FEE7FEE700F002F800F042F814A696E858
:10029000000CB244B344DA4501D100F039F8BAE8B1
:1002A0000F000FA696E83000A5EB040504EB060747
:1002B000AAEB0704A7F101074FEA15154FEA34141A
:1002C000A4F10104AC4201D300F022F813F0010FB5
:1002D00018BFFB1A43F0010300F001F8DBE71847F1
:1002E000142B0000242B0000704700000023002482
:1002F00000250026103A28BF78C1FBD8520728BF36
:1003000030C148BF0B6070471FB51FBD10B510BD91
:1003100000F029F81146FFF7F7FF00F015FD00F097
:1003200047F803B4FFF7F2FF03BC00F04FF80000FA
:1003300072B6704762B67047EFF3108072B67047BE
:1003400080F31088704730BF704702480249014A65
:10035000024B7047680000206804002068000020FD
:10036000704770477047754600F02CF8AE460500A0
:100370006946534620F00700854618B020B5FFF7C0
:10038000E4FFBDE820404FF000064FF000074FF0BB
:1003900000084FF0000BAC46ACE8C009ACE8C0095F
:1003A000ACE8C009ACE8C00921F007018D467047F0
:1003B00010B50446AFF300802046BDE81040FFF7BB
:1003C000B0BF00000048704700000020014918201D
:1003D000ABBEFEE7260002007047000080B584B087
:1003E00040F26300C2F200000078C0EB002140F64A
:1003F0001460C0F2000000EBC10040F26601C2F2DE
:100400000001098800EBC100406868B9FFE740F2CD
:100410006601C2F200010020088000F065FC4FF484
:10042000967000F0BBF87BE040F26601C2F200017A
:100430000888ADF80E0040F26302C2F200021078A4
:10044000C0EB002340F61460C0F2000000EBC303D1
:10045000B1F800C013F83C308DF80D301278C2EBC3
:10046000022200EBC200098800EBC1004068029044
:100470009DF80D00FF2803D1FFE700F035FC32E0C6
:100480009DF80D0044F62511C2F29241A0FB012116
:10049000A1EBC10108448DF8070040F26400C2F2EC
:1004A0000000007818B9FFE7002000900AE040F251
:1004B0006400C2F2000001780E20012908BF072065
:1004C0000090FFE700988DF806009DF806009DF863
:1004D0000710014440F6C050C0F2000050F821005F
:1004E00000F0E8FBFFE7029800EB8000000100F05D
:1004F00055F800F0F9FB142000F050F840F26600C7
:10050000C2F200000088BDF80E10884208D1FFE753
:1005100040F26601C2F20001088801300880FFE75E
:1005200004B080BD4EF20861C4F20F01086840F0CB
:1005300002000860FFE74EF20860C4F20F00006896
:100540008007002801D4FFE7F5E745F22851C4F2FF
:100550000001086820F03F00086045F22041C4F225
:100560000001086820F03F00086045F20041C4F235
:100570000001086840F03F00086045F21C51C4F2D9
:100580000001086840F03F00086045F20851C4F2DD
:100590000001086840F03F000860704781B000909B
:1005A000FFE7009890B1FFE72421C4F20301012086
:1005B0000860FFE71C20C4F203000068C00708B908
:1005C000FFE7F7E7009801380090EAE701B07047CD
:1005D0004EF20461C4F20F01086840F001000860A7
:1005E000FFE74EF20460C4F20F000068C00708B9CC
:1005F000FFE7F6E70C21C4F20301002008600022A7
:10060000C4F2030210600423C4F2030302221A603E
:100610003822C4F2030210602822C4F203024CF212
:100620004F3010602422C4F20302012010600860E1
:100630007047000081B044F21840C4F20200006824
:1006400000F00F008DF803009DF8030044F21C41F8
:10065000C4F20201086045F2FC31C4F202010868EC
:1006600020F00E00086044F2FC30C4F20200006882
:100670008DF802009DF80200C00778B1FFE745F24F
:10068000FC31C4F20201086840F00200086040F248
:100690006501C2F200010120087048E09DF80200E7
:1006A000800700280FD5FFE745F2FC31C4F20201B4
:1006B000086840F00400086040F26501C2F20001E1
:1006C0000220087032E09DF80200400700280FD594
:1006D000FFE745F2FC31C4F20201086840F00E0069
:1006E000086040F26501C2F20001032008701CE0BE
:1006F0009DF80200000700280FD5FFE745F2FC3106
:10070000C4F20201086840F00800086040F2650188
:10071000C2F200010420087006E040F26501C2F256
:10072000000100200870FFE7FFE7FFE7FFE701B0E7
:100730007047000080B545F21840C4F2020000681E
:10074000C00600282BD5FFE745F21C41C4F2020188
:10075000102008603220FFF721FF45F2FC31C4F27F
:100760000201086820F00E000860086840F00400EC
:10077000086040F26200C2F20000007838B9FFE77A
:1007800040F26201C2F200010120087006E040F26E
:100790006201C2F2000100200870FFE7FFE745F2A6
:1007A0001840C4F202000068C007002867D0FFE7C5
:1007B00045F21C41C4F20201012008603220FFF71B
:1007C000EDFE40F26200C2F20000007830BBFFE7AD
:1007D00040F26400C2F20000007838B9FFE740F24E
:1007E0006401C2F200010120087016E040F26400CA
:1007F000C2F200000078012807D1FFE740F264014F
:10080000C2F200010220087006E040F26401C2F268
:10081000000100200870FFE7FFE71AE000F064FA2B
:1008200040F26300C2F2000001780131017040F231
:100830006602C2F20002002111800078042807DB62
:10084000FFE740F26301C2F2000100200870FFE7F9
:10085000FFE7FFE745F2FC30C4F202000068C00782
:1008600008B9FFE7F6E73220FFF798FE45F2FC31C2
:10087000C4F20201086820F00E000860FFE780BDA6
:1008800081B04EF27001C4F20F010091086840F08F
:1008900000400860086840F4006008604EF26002A2
:1008A000C4F20F02106820F4F8601060106800F5C0
:1008B000A8601060086820F0700008600868086090
:1008C000086820F400500860086840F08040086024
:1008D0000868072262F39C500860FFE74EF2500060
:1008E000C4F20F0000684006002801D4FFE7F5E7D6
:1008F0004EF27001C4F20F01086820F40060086035
:1009000001B070474EF20861C4F20F01086840F070
:1009100010000860FFE74EF20860C4F20F000068A4
:1009200000F01000102801D0FFE7F4E744F2004186
:10093000C4F20201086820F00F00086044F21C5164
:10094000C4F20201086840F00F00086044F2285128
:10095000C4F20201086820F00F00086044F2204150
:10096000C4F20201086820F00F00086044F204415C
:10097000C4F20201086820F00F00086044F2084148
:10098000C4F20201086840F00F00086044F21C4104
:10099000C4F202010F20086044F21041C4F20201C7
:1009A000086840F00F0008604EF20041CEF20001EE
:1009B0000868022262F3071008604EF20011CEF2BE
:1009C0000001086840F010000860704780B584B0EE
:1009D00040F26500C2F2000000788DF80F0040F28E
:1009E0006400C2F200000078002836D1FFE79DF8CD
:1009F0000F0040F26101C2F20001097888422BD059
:100A0000FFE79DF80F00013801460291032818D82E
:100A10000299DFE801F002070C1140F6A93000F05E
:100A200049F911E040F6622000F044F90CE040F68C
:100A30003F1000F03FF907E040F6BE0000F03AF941
:100A400002E000F051F9FFE79DF80F0040F261016C
:100A5000C2F200010870FFE7FFE740F26400C2F253
:100A600000000078012836D1FFE79DF80F0040F222
:100A70006101C2F20001097888422BD0FFE79DF89E
:100A80000F00013801460191032818D80199DFE8C9
:100A900001F002070C1140F2D55000F00BF911E003
:100AA00040F2335000F006F90CE040F2A14000F0B3
:100AB00001F907E040F25F4000F0FCF802E000F0CE
:100AC00013F9FFE79DF80F0040F26101C2F2000147
:100AD0000870FFE7FFE740F26400C2F20000007810
:100AE000022836D1FFE79DF80F0040F26101C2F203
:100AF0000001097888422BD0FFE79DF80F000138EC
:100B000001460091032818D80099DFE801F0020798
:100B10000C1140F2EA2000F0CDF811E040F29920EB
:100B200000F0C8F80CE040F2512000F0C3F807E0F4
:100B300040F22F2000F0BEF802E000F0D5F8FFE709
:100B40009DF80F0040F26101C2F200010870FFE75A
:100B5000FFE704B080BD00004EF20861C4F20F014F
:100B6000086840F020000860FFE74EF20860C4F219
:100B70000F00006800F02000202801D0FFE7F4E714
:100B800045F22051C4F2020144F24B30C4F64F400A
:100B9000086045F22451C4F20201086840F01F00C9
:100BA000086045F2004CC4F2020CDCF8000040F092
:100BB0000E00CCF8000045F21C53C4F20203186882
:100BC00040F00E00186045F22852C4F2020210688C
:100BD00020F00E00106045F22041C4F202010868C6
:100BE00020F00E000860DCF8000020F01100CCF8C6
:100BF0000000186840F011001860106820F0110023
:100C00001060086820F01100086045F21051C4F22D
:100C10000201086840F01100086045F20441C4F286
:100C20000201086820F01100086045F20841C4F292
:100C30000201086820F01100086045F20C41C4F27E
:100C40000201086820F01100086045F21C41C4F25E
:100C500002011120086045F21041C4F20201086847
:100C600040F0110008604EF21C41CEF2000108680D
:100C7000402262F3174008604EF20011CEF20001EC
:100C8000086840F0804008607047000040F2600152
:100C9000C2F20001002008704EF21001CEF20001F5
:100CA00008604EF62051CEF20001086820F07F4027
:100CB0000860704781B00090009801384EF214012E
:100CC000CEF2000108604EF21801CEF200010020C1
:100CD00008604EF21001CEF20001086840F00700F3
:100CE000086001B0704700004EF21001CEF2000122
:100CF000002008607047000040F26000C2F200006F
:100D00000178013101F03F010170017840F67E5019
:100D1000C0F20000405C45F2FC01C4F20001086032
:100D20007047000080B500F00DF8FFF7A9FDFFF750
:100D300013FFFFF7E7FDFFF7F5FBFFF7A7FFFFF74F
:100D400047FC80BD7047000080B582B00020019054
:100D5000FFF7E8FFFFE740F26200C2F20000007810
:100D60000146009120B1FFE70098012803D005E07B
:100D7000FFF72CFE02E0FFF731FBFFE7EBE7202354
:100D800026292C2E313336383A3B3D3E3E3F3F3FFD
:100D90003E3E3D3B3A383633312E2C292623201C4B
:100DA000191613110E0C09070504020101000000B9
:100DB000010102040507090C0E111316191C00008D
:100DC000A90B0000620A00003F090000BE080000F5
:100DD000C8070000EF0600002D060000D505000042
:100DE00033050000A10400005F040000E4030000DC
:100DF0007703000017030000EA02000099020000D8
:100E0000510200002F020000F2010000BC010000AE
:100E10008B0100000200000004000000010000003F
:100E200004000000000000000400000001000000B9
:100E3000040000000200000004000000FF000000A9
:100E4000010000000200000004000000FF0000009C
:100E50000100000002000000080000000100000086
:100E600004000000FF00000001000000010000007D
:100E700004000000FF00000001000000010000006D
:100E80000800000002000000040000000400000050
:100E900004000000FF00000001000000040000004A
:100EA0000800000002000000040000000100000033
:100EB0000400000000000000040000000100000029
:100EC000040000000200000004000000FF00000019
:100ED000010000000200000004000000FF0000000C
:100EE00001000000020000000800000001000000F6
:100EF00004000000FF0000000100000001000000ED
:100F000004000000020000000400000001000000D6
:100F100004000000000000000800000000000000C5
:100F200000000000000000000000000000000000C1
:100F300000000000000000000000000000000000B1
:100F400000000000000000000000000000000000A1
:100F50000000000000000000000000000000000091
:1016100003000000FF0000000100000000000000C7
:1016200003000000FF0000000100000004000000B3
:1016300003000000FF0000000100000004000000A3
:1016400003000000FF000000010000000500000092
:1016500003000000FF000000010000000500000082
:1016600003000000FF000000010000000400000073
:10167000080000000300000003000000FF0000005D
:10168000010000000300000003000000FF00000054
:10169000010000000200000003000000FF00000045
:1016A000010000000200000003000000FF00000035
:1016B000010000000100000003000000FF00000026
:1016C000010000000100000003000000FF00000016
:1016D00001000000000000000800000004000000FD
:1016E00003000000FF0000000100000004000000F3
:1016F00003000000FF0000000100000003000000E4
:1017000003000000FF0000000100000003000000D3
:1017100003000000FF0000000100000002000000C4
:1017200003000000FF0000000100000002000000B4
:1017300003000000FF0000000100000001000000A5
:10174000080000000400000003000000FF0000008B
:10175000010000000400000003000000FF00000082
:10176000010000000300000003000000FF00000073
:10177000010000000300000003000000FF00000063
:10178000010000000200000003000000FF00000054
:10179000010000000200000003000000FF00000044
:1017A000010000000100000008000000000000002F
:1017B00003000000FF000000010000000000000026
:1017C00003000000FF000000010000000400000012
:1017D00003000000FF000000010000000400000002
:1017E00003000000FF0000000100000005000000F1
:1017F00003000000FF0000000100000005000000E1
:1018000003000000FF0000000100000004000000D1
:10181000080000000300000003000000FF000000BB
:10182000010000000300000003000000FF000000B2
:10183000010000000200000003000000FF000000A3
:10184000010000000200000003000000FF00000093
:10185000010000000100000003000000FF00000084
:10186000010000000100000003000000FF00000074
:10187000010000000000000008000000000000005F
:101880000000000000000000000000000000000058
:101890000000000000000000000000000000000048
:1018A0000000000000000000000000000000000038
:1018B0000000000000000000000000000000000028
:101E0000000000000700000002000000FF000000CA
:101E1000010000000700000001000000FF000000BA
:101E2000010000000800000004000000070000009E
:101E3000040000000A000000040000000900000087
:101E4000080000000700000002000000FF00000082
:101E5000010000000700000001000000FF0000007A
:101E6000010000000800000004000000070000005E
:101E7000040000000B000000040000000A00000045
:101E8000080000000700000002000000FF00000042
:101E9000010000000700000001000000FF0000003A
:101EA000010000000E000000040000000C00000013
:101EB000040000000A000000040000000900000007
:101EC0000400000008000000040000000D000000F5
:101ED00002000000FF000000010000000D000000F3
:101EE00001000000FF000000010000000C000000E5
:101EF000040000000A000000040000000B000000C5
:101F0000040000000A0000000C00000000000000B7
:101F100000000000000000000000000000000000C1
:101F200000000000000000000000000000000000B1
:101F300000000000000000000000000000000000A1
:101F40000000000000000000000000000000000091
:1025F00000000000000000000000000014000000C7
:1026000002000000FF0000000100000014000000B4
:1026100002000000FF0000000100000011000000A7
:1026200002000000FF000000010000000F00000099
:1026300002000000FF000000010000001400000084
:1026400002000000FF000000010000001100000077
:1026500004000000FF000000010000000F00000067
:1026600008000000FF000000020000000E00000053
:1026700002000000FF000000010000000E0000004A
:1026800002000000FF000000010000001200000036
:1026900002000000FF000000010000001000000028
:1026A00002000000FF000000010000000E0000001A
:1026B00002000000FF000000010000001200000006
:1026C00004000000FF0000000100000010000000F6
:1026D00008000000FF0000000200000014000000DD
:1026E00002000000FF0000000100000014000000D4
:1026F00002000000FF0000000100000011000000C7
:1027000002000000FF000000010000000F000000B8
:1027100002000000FF0000000100000014000000A3
:1027200002000000FF000000010000001100000096
:1027300004000000FF000000010000000F00000086
:1027400008000000FF000000020000000F00000071
:102750000200000010000000020000001100000054
:1027600002000000FF000000010000001100000056
:102770000200000012000000020000001300000030
:1027800002000000FF000000010000001300000034
:102790000200000014000000020000000E00000013
:1027A00002000000FF00000001000000FF00000028
:1027B00001000000FF000000010000000000000018
:1027C0000000000000000000000000000000000009
:1027D00000000000000000000000000000000000F9
:1027E00000000000000000000000000000000000E9
:1027F00000000000000000000000000000000000D9
:102DF00000000000042E0000000000206804000015
:042E0000EC020000E0
:040000050000026D88
:00000001FF
