:020000040000FA
:10000000700400206D020000710200007302000005
:100010007502000077020000790200000000000075
:100020000000000000000000000000007B02000053
:100030007D020000000000007F0200009D0B000018
:10004000830200008302000083020000830200009C
:1000500041050000830200008302000083020000CB
:10006000830200008302000083020000830200007C
:10007000830200008302000083020000830200006C
:10008000830200008302000083020000830200005C
:10009000830200008302000083020000830200004C
:1000A000830200008302000083020000830200003C
:1000B000830200008302000041060000830200006A
:1000C000830200008302000083020000830200001C
:1000D000830200008302000083020000830200000C
:1000E00083020000830200008302000083020000FC
:1000F00083020000830200008302000083020000EC
:1001000083020000830200008302000083020000DB
:1001100083020000830200008302000083020000CB
:1001200083020000830200008302000083020000BB
:1001300083020000830200008302000083020000AB
:1001400000000000000000000000000000000000AF
:10015000830200008302000083020000830200008B
:10016000000000000000000000000000000000008F
:10017000000000000000000000000000000000007F
:10018000000000000000000000000000000000006F
:10019000000000000000000000000000000000005F
:1001A000000000000000000000000000000000004F
:1001B000830200008302000083020000830200002B
:1001C000830200008302000083020000830200001B
:1001D000830200008302000083020000830200000B
:1001E00083020000830200008302000083020000FB
:1001F00083020000830200008302000083020000EB
:10020000830200008302000083020000000000005F
:1002100083020000830200008302000083020000CA
:1002200083020000830200008302000083020000BA
:1002300083020000830200008302000083020000AA
:10024000830200008302000083020000830200009A
:10025000830200008302000083020000830200008A
:1002600083020000830200008302000000F00AB84D
:10027000FEE7FEE7FEE7FEE7FEE7FEE7FEE7FEE756
:10028000FEE7FEE700F002F800F042F814A696E858
:10029000000CB244B344DA4501D100F039F8BAE8B1
:1002A0000F000FA696E83000A5EB040504EB060747
:1002B000AAEB0704A7F101074FEA15154FEA34141A
:1002C000A4F10104AC4201D300F022F813F0010FB5
:1002D00018BFFB1A43F0010300F001F8DBE71847F1
:1002E000A40A0000B40A00007047000000230024A4
:1002F00000250026103A28BF78C1FBD8520728BF36
:1003000030C148BF0B6070471FB51FBD10B510BD91
:1003100000F029F81146FFF7F7FF00F065FC00F048
:1003200047F803B4FFF7F2FF03BC00F04FF80000FA
:1003300072B6704762B67047EFF3108072B67047BE
:1003400080F31088704730BF704702480249014A65
:10035000024B7047700000207004002070000020E5
:10036000704770477047754600F02CF8AE460500A0
:100370006946534620F00700854618B020B5FFF7C0
:10038000E4FFBDE820404FF000064FF000074FF0BB
:1003900000084FF0000BAC46ACE8C009ACE8C0095F
:1003A000ACE8C009ACE8C00921F007018D467047F0
:1003B00010B50446AFF300802046BDE81040FFF7BB
:1003C000B0BF00000048704700000020014918201D
:1003D000ABBEFEE7260002007047000080B582B089
:1003E00040F26000C2F20000016840F66040C0F2D6
:1003F000000000EBC100406868B9FFE740F260010F
:10040000C2F200010020086000F0C0FB4FF49670BB
:1004100000F07EF83DE040F26000C2F200000168AA
:1004200040F66040C0F2000010F83100FF2803D110
:10043000FFE700F0ABFB13E040F26000C2F2000007
:10044000016840F66040C0F2000010F8311040F63C
:100450003050C0F2000050F8210000F07DFBFFE7B3
:1004600040F26000C2F200000190016840F6604076
:10047000C0F2000000EBC100406800F049F800F055
:1004800085FB142000F044F80199086801300860E9
:10049000FFE702B080BD00004EF20861C4F20F0118
:1004A000086840F002000860FFE74EF20860C4F2FE
:1004B0000F0000688007002801D4FFE7F5E745F248
:1004C0002851C4F20001086820F03F00086045F29E
:1004D0002041C4F20001086820F03F00086045F2A6
:1004E0000041C4F20001086840F03F00086045F296
:1004F0001C51C4F20001086840F03F00086045F25A
:100500000851C4F20001086840F03F0008607047DD
:1005100082B00190FFE7019878B1FFE744F21B1029
:100520000090FFE7009820B1FFE7009801380090A5
:10053000F8E7019801380190EDE702B0704700003C
:1005400081B044F21840C4F20200006800F00F00CD
:100550008DF803009DF8030044F21C41C4F202012F
:10056000086045F2FC31C4F20201086820F00E0078
:10057000086044F2FC30C4F2020000688DF802000A
:100580009DF80200C00778B1FFE745F2FC31C4F2E4
:100590000201086840F00200086040F26801C2F2FF
:1005A00000010120087048E09DF802008007002843
:1005B0000FD5FFE745F2FC31C4F20201086840F0B4
:1005C0000400086040F26801C2F2000102200870D5
:1005D00032E09DF80200400700280FD5FFE745F202
:1005E000FC31C4F20201086840F00E00086040F2DD
:1005F0006801C2F20001032008701CE09DF80200AF
:10060000000700280FD5FFE745F2FC31C4F20201D4
:10061000086840F00800086040F26801C2F200017A
:100620000420087006E040F26801C2F200010020D8
:100630000870FFE7FFE7FFE7FFE701B07047000042
:1006400045F21840C4F202000068C006002828D510
:10065000FFE745F21C41C4F202011020086045F298
:10066000FC31C4F20201086820F00E00086008683E
:1006700040F00400086040F26600C2F2000000781A
:1006800038B9FFE740F26601C2F2000101200870AC
:1006900006E040F26601C2F2000100200870FFE7A8
:1006A000FFE745F21840C4F202000068C007C0B37B
:1006B000FFE745F21C41C4F202010120086045F247
:1006C000FC31C4F20201086820F00E0008600868DE
:1006D00040F00200086040F26700C2F200000078BB
:1006E00038B9FFE740F26701C2F20001012008704B
:1006F00016E040F26700C2F200000078012807D13E
:10070000FFE740F26701C2F200010220087006E034
:1007100040F26701C2F2000100200870FFE7FFE726
:10072000FFE7704781B04EF27001C4F20F010091F3
:10073000086840F000400860086840F40060086005
:100740004EF26002C4F20F02106820F4F8601060EC
:10075000106800F5A8601060086820F0700008605C
:1007600008680860086820F400500860086840F0D5
:10077000804008600868072262F39C500860FFE729
:100780004EF25000C4F20F0000684006002801D469
:10079000FFE7F5E74EF27001C4F20F01086820F49C
:1007A0000060086001B070474EF20861C4F20F01AA
:1007B000086840F010000860FFE74EF20860C4F2DD
:1007C0000F00006800F01000102801D0FFE7F4E7E8
:1007D00044F20041C4F20201086820F00F000860F2
:1007E00044F21C51C4F20201086840F00F00086096
:1007F00044F22851C4F20201086820F00F0008609A
:1008000044F22041C4F20201086820F00F000860A1
:1008100044F20441C4F20201086820F00F000860AD
:1008200044F20841C4F20201086840F00F00086079
:1008300044F21C41C4F202010F20086044F210414E
:10084000C4F20201086840F00F0008604EF2004157
:10085000CEF200010868022262F3071008604EF22F
:100860000011CEF20001086840F0100008607047E7
:1008700080B584B040F26800C2F2000000788DF8C4
:100880000F0040F26700C2F200000078002836D165
:10089000FFE79DF80F0040F26501C2F20001097800
:1008A00088422BD0FFE79DF80F00013801460291E6
:1008B000032818D80299DFE801F002070C1140F66E
:1008C000A93000F049F911E040F6622000F044F947
:1008D0000CE040F63F1000F03FF907E040F6BE00A4
:1008E00000F03AF902E000F051F9FFE79DF80F003F
:1008F00040F26501C2F200010870FFE7FFE740F235
:100900006700C2F200000078012836D1FFE79DF8A9
:100910000F0040F26501C2F20001097888422BD035
:10092000FFE79DF80F00013801460191032818D810
:100930000199DFE801F002070C1140F2D55000F0F8
:100940000BF911E040F2335000F006F90CE040F2F0
:10095000A14000F001F907E040F25F4000F0FCF830
:1009600002E000F013F9FFE79DF80F0040F2650187
:10097000C2F200010870FFE7FFE740F26700C2F231
:1009800000000078022836D1FFE79DF80F0040F202
:100990006501C2F20001097888422BD0FFE79DF87B
:1009A0000F00013801460091032818D80099DFE8AC
:1009B00001F002070C1140F2EA2000F0CDF811E03E
:1009C00040F2992000F0C8F80CE040F2512000F00D
:1009D000C3F807E040F22F2000F0BEF802E000F07C
:1009E000D5F8FFE79DF80F0040F26501C2F2000163
:1009F0000870FFE7FFE704B080BD00004EF2086119
:100A0000C4F20F01086840F020000860FFE74EF2D2
:100A10000860C4F20F00006800F02000202801D018
:100A2000FFE7F4E745F22051C4F2020144F24B30F3
:100A3000C4F64F40086045F22451C4F20201086830
:100A400040F01F00086045F2004CC4F2020CDCF8D4
:100A5000000040F00E00CCF8000045F21C53C4F238
:100A60000203186840F00E00186045F22852C4F2E4
:100A70000202106820F00E00106045F22041C4F21E
:100A80000201086820F00E000860DCF8000020F089
:100A90001100CCF80000186840F0110018601068D0
:100AA00020F011001060086820F01100086045F285
:100AB0001051C4F20201086840F01100086045F2CC
:100AC0000441C4F20201086820F01100086045F2F8
:100AD0000841C4F20201086820F01100086045F2E4
:100AE0000C41C4F20201086820F01100086045F2D0
:100AF0001C41C4F202011120086045F21041C4F209
:100B00000201086840F0110008604EF21C41CEF26C
:100B100000010868402262F3174008604EF200119D
:100B2000CEF20001086840F0804008607047000085
:100B300040F26401C2F20001002008704EF2100180
:100B4000CEF2000108604EF62051CEF20001086896
:100B500020F07F400860704781B000900098013815
:100B60004EF21401CEF2000108604EF21801CEF2EE
:100B70000001002008604EF21001CEF2000108686A
:100B800040F00700086001B0704700004EF210010D
:100B9000CEF20001002008607047000040F26400BF
:100BA000C2F200000178013101F03F0101700178CB
:100BB00040F61E40C0F20000405C45F2FC01C4F269
:100BC000000108607047000080B500F00BF8FFF7E7
:100BD000A9FDFFF713FFFFF7E7FDFFF75DFCFFF748
:100BE000A7FF80BD7047000080B582B00020019053
:100BF000FFF7EAFFFFE740F26600C2F2000000786C
:100C00000146009120B1FFE70098012803D005E0DC
:100C1000FFF72EFE02E0FFF7E1FBFFE7EBE7202303
:100C200026292C2E313336383A3B3D3E3E3F3F3F5E
:100C30003E3E3D3B3A383633312E2C292623201CAC
:100C4000191613110E0C090705040201010000001A
:100C5000010102040507090C0E111316191C0000EE
:100C60000000000032000000000000003200000020
:100C700001000000640000000000000064000000AB
:100C8000030000006400000002000000C800000033
:100C900000000000320000000000000032000000F0
:100CA000010000006400000000000000640000007B
:100CB000040000006400000003000000C800000001
:100CC00000000000320000000000000032000000C0
:100CD0000700000064000000050000006400000040
:100CE0000300000064000000020000006400000037
:100CF00001000000C80000000600000032000000F3
:100D00000600000032000000050000006400000042
:100D10000300000064000000040000006400000004
:100D2000030000002C010000000000000000000093
:100D3000A90B0000620A00003F090000BE08000085
:100D4000C8070000EF0600002D060000D5050000D2
:100D500033050000A10400005F040000E40300006C
:100D60007703000017030000EA0200009902000068
:100D7000510200002F020000F2010000BC0100003F
:100D80008B010000940D00000000002070040000A2
:040D9000EC02000071
:040000050000026D88
:00000001FF
